{"abi":[{"type":"constructor","inputs":[],"stateMutability":"nonpayable"},{"type":"function","name":"acceptTransfer","inputs":[{"name":"transferId","type":"uint256","internalType":"uint256"}],"outputs":[],"stateMutability":"nonpayable"},{"type":"function","name":"addressToUserId","inputs":[{"name":"","type":"address","internalType":"address"}],"outputs":[{"name":"","type":"uint256","internalType":"uint256"}],"stateMutability":"view"},{"type":"function","name":"admin","inputs":[],"outputs":[{"name":"","type":"address","internalType":"address"}],"stateMutability":"view"},{"type":"function","name":"changeStatusUser","inputs":[{"name":"userAddress","type":"address","internalType":"address"},{"name":"newStatus","type":"uint8","internalType":"enum SupplyChain.UserStatus"}],"outputs":[],"stateMutability":"nonpayable"},{"type":"function","name":"createToken","inputs":[{"name":"name","type":"string","internalType":"string"},{"name":"totalSupply","type":"uint256","internalType":"uint256"},{"name":"features","type":"string","internalType":"string"},{"name":"parentId","type":"uint256","internalType":"uint256"}],"outputs":[],"stateMutability":"nonpayable"},{"type":"function","name":"getToken","inputs":[{"name":"tokenId","type":"uint256","internalType":"uint256"}],"outputs":[{"name":"","type":"tuple","internalType":"struct SupplyChain.Token","components":[{"name":"id","type":"uint256","internalType":"uint256"},{"name":"creator","type":"address","internalType":"address"},{"name":"name","type":"string","internalType":"string"},{"name":"totalSupply","type":"uint256","internalType":"uint256"},{"name":"features","type":"string","internalType":"string"},{"name":"parentId","type":"uint256","internalType":"uint256"},{"name":"dateCreated","type":"uint256","internalType":"uint256"}]}],"stateMutability":"view"},{"type":"function","name":"getTokenBalance","inputs":[{"name":"tokenId","type":"uint256","internalType":"uint256"},{"name":"userAddress","type":"address","internalType":"address"}],"outputs":[{"name":"","type":"uint256","internalType":"uint256"}],"stateMutability":"view"},{"type":"function","name":"getTransfer","inputs":[{"name":"transferId","type":"uint256","internalType":"uint256"}],"outputs":[{"name":"","type":"tuple","internalType":"struct SupplyChain.Transfer","components":[{"name":"id","type":"uint256","internalType":"uint256"},{"name":"from","type":"address","internalType":"address"},{"name":"to","type":"address","internalType":"address"},{"name":"tokenId","type":"uint256","internalType":"uint256"},{"name":"dateCreated","type":"uint256","internalType":"uint256"},{"name":"amount","type":"uint256","internalType":"uint256"},{"name":"status","type":"uint8","internalType":"enum SupplyChain.TransferStatus"}]}],"stateMutability":"view"},{"type":"function","name":"getUserInfo","inputs":[{"name":"userAddress","type":"address","internalType":"address"}],"outputs":[{"name":"","type":"tuple","internalType":"struct SupplyChain.User","components":[{"name":"id","type":"uint256","internalType":"uint256"},{"name":"userAddress","type":"address","internalType":"address"},{"name":"role","type":"string","internalType":"string"},{"name":"status","type":"uint8","internalType":"enum SupplyChain.UserStatus"}]}],"stateMutability":"view"},{"type":"function","name":"getUserTokens","inputs":[{"name":"userAddress","type":"address","internalType":"address"}],"outputs":[{"name":"","type":"uint256[]","internalType":"uint256[]"}],"stateMutability":"view"},{"type":"function","name":"getUserTransfers","inputs":[{"name":"userAddress","type":"address","internalType":"address"}],"outputs":[{"name":"","type":"uint256[]","internalType":"uint256[]"}],"stateMutability":"view"},{"type":"function","name":"isAdmin","inputs":[{"name":"userAddress","type":"address","internalType":"address"}],"outputs":[{"name":"","type":"bool","internalType":"bool"}],"stateMutability":"view"},{"type":"function","name":"nextTokenId","inputs":[],"outputs":[{"name":"","type":"uint256","internalType":"uint256"}],"stateMutability":"view"},{"type":"function","name":"nextTransferId","inputs":[],"outputs":[{"name":"","type":"uint256","internalType":"uint256"}],"stateMutability":"view"},{"type":"function","name":"nextUserId","inputs":[],"outputs":[{"name":"","type":"uint256","internalType":"uint256"}],"stateMutability":"view"},{"type":"function","name":"rejectTransfer","inputs":[{"name":"transferId","type":"uint256","internalType":"uint256"}],"outputs":[],"stateMutability":"nonpayable"},{"type":"function","name":"requestUserRole","inputs":[{"name":"role","type":"string","internalType":"string"}],"outputs":[],"stateMutability":"nonpayable"},{"type":"function","name":"tokenBalances","inputs":[{"name":"","type":"uint256","internalType":"uint256"},{"name":"","type":"address","internalType":"address"}],"outputs":[{"name":"","type":"uint256","internalType":"uint256"}],"stateMutability":"view"},{"type":"function","name":"tokens","inputs":[{"name":"","type":"uint256","internalType":"uint256"}],"outputs":[{"name":"id","type":"uint256","internalType":"uint256"},{"name":"creator","type":"address","internalType":"address"},{"name":"name","type":"string","internalType":"string"},{"name":"totalSupply","type":"uint256","internalType":"uint256"},{"name":"features","type":"string","internalType":"string"},{"name":"parentId","type":"uint256","internalType":"uint256"},{"name":"dateCreated","type":"uint256","internalType":"uint256"}],"stateMutability":"view"},{"type":"function","name":"transfer","inputs":[{"name":"to","type":"address","internalType":"address"},{"name":"tokenId","type":"uint256","internalType":"uint256"},{"name":"amount","type":"uint256","internalType":"uint256"}],"outputs":[],"stateMutability":"nonpayable"},{"type":"function","name":"transfers","inputs":[{"name":"","type":"uint256","internalType":"uint256"}],"outputs":[{"name":"id","type":"uint256","internalType":"uint256"},{"name":"from","type":"address","internalType":"address"},{"name":"to","type":"address","internalType":"address"},{"name":"tokenId","type":"uint256","internalType":"uint256"},{"name":"dateCreated","type":"uint256","internalType":"uint256"},{"name":"amount","type":"uint256","internalType":"uint256"},{"name":"status","type":"uint8","internalType":"enum SupplyChain.TransferStatus"}],"stateMutability":"view"},{"type":"function","name":"users","inputs":[{"name":"","type":"uint256","internalType":"uint256"}],"outputs":[{"name":"id","type":"uint256","internalType":"uint256"},{"name":"userAddress","type":"address","internalType":"address"},{"name":"role","type":"string","internalType":"string"},{"name":"status","type":"uint8","internalType":"enum SupplyChain.UserStatus"}],"stateMutability":"view"},{"type":"event","name":"TokenCreated","inputs":[{"name":"tokenId","type":"uint256","indexed":true,"internalType":"uint256"},{"name":"creator","type":"address","indexed":true,"internalType":"address"},{"name":"name","type":"string","indexed":false,"internalType":"string"},{"name":"totalSupply","type":"uint256","indexed":false,"internalType":"uint256"}],"anonymous":false},{"type":"event","name":"TransferAccepted","inputs":[{"name":"transferId","type":"uint256","indexed":true,"internalType":"uint256"}],"anonymous":false},{"type":"event","name":"TransferRejected","inputs":[{"name":"transferId","type":"uint256","indexed":true,"internalType":"uint256"}],"anonymous":false},{"type":"event","name":"TransferRequested","inputs":[{"name":"transferId","type":"uint256","indexed":true,"internalType":"uint256"},{"name":"from","type":"address","indexed":true,"internalType":"address"},{"name":"to","type":"address","indexed":true,"internalType":"address"},{"name":"tokenId","type":"uint256","indexed":false,"internalType":"uint256"},{"name":"amount","type":"uint256","indexed":false,"internalType":"uint256"}],"anonymous":false},{"type":"event","name":"UserRoleRequested","inputs":[{"name":"user","type":"address","indexed":true,"internalType":"address"},{"name":"role","type":"string","indexed":false,"internalType":"string"}],"anonymous":false},{"type":"event","name":"UserStatusChanged","inputs":[{"name":"user","type":"address","indexed":true,"internalType":"address"},{"name":"status","type":"uint8","indexed":false,"internalType":"enum SupplyChain.UserStatus"}],"anonymous":false}],"bytecode":{"object":"0x6080604052600180556001600255600160035534801561001d575f5ffd5b50335f5f6101000a81548173ffffffffffffffffffffffffffffffffffffffff021916908373ffffffffffffffffffffffffffffffffffffffff160217905550604051806080016040528060035481526020013373ffffffffffffffffffffffffffffffffffffffff1681526020016040518060400160405280600581526020017f41646d696e0000000000000000000000000000000000000000000000000000008152508152602001600160038111156100db576100da6101e7565b5b81525060075f60035481526020019081526020015f205f820151815f01556020820151816001015f6101000a81548173ffffffffffffffffffffffffffffffffffffffff021916908373ffffffffffffffffffffffffffffffffffffffff16021790555060408201518160020190816101549190610451565b506060820151816003015f6101000a81548160ff0219169083600381111561017f5761017e6101e7565b5b021790555090505060035460085f3373ffffffffffffffffffffffffffffffffffffffff1673ffffffffffffffffffffffffffffffffffffffff1681526020019081526020015f208190555060035f8154809291906101dd9061054d565b9190505550610594565b7f4e487b71000000000000000000000000000000000000000000000000000000005f52602160045260245ffd5b5f81519050919050565b7f4e487b71000000000000000000000000000000000000000000000000000000005f52604160045260245ffd5b7f4e487b71000000000000000000000000000000000000000000000000000000005f52602260045260245ffd5b5f600282049050600182168061028f57607f821691505b6020821081036102a2576102a161024b565b5b50919050565b5f819050815f5260205f209050919050565b5f6020601f8301049050919050565b5f82821b905092915050565b5f600883026103047fffffffffffffffffffffffffffffffffffffffffffffffffffffffffffffffff826102c9565b61030e86836102c9565b95508019841693508086168417925050509392505050565b5f819050919050565b5f819050919050565b5f61035261034d61034884610326565b61032f565b610326565b9050919050565b5f819050919050565b61036b83610338565b61037f61037782610359565b8484546102d5565b825550505050565b5f5f905090565b610396610387565b6103a1818484610362565b505050565b5b818110156103c4576103b95f8261038e565b6001810190506103a7565b5050565b601f821115610409576103da816102a8565b6103e3846102ba565b810160208510156103f2578190505b6104066103fe856102ba565b8301826103a6565b50505b505050565b5f82821c905092915050565b5f6104295f198460080261040e565b1980831691505092915050565b5f610441838361041a565b9150826002028217905092915050565b61045a82610214565b67ffffffffffffffff8111156104735761047261021e565b5b61047d8254610278565b6104888282856103c8565b5f60209050601f8311600181146104b9575f84156104a7578287015190505b6104b18582610436565b865550610518565b601f1984166104c7866102a8565b5f5b828110156104ee578489015182556001820191506020850194506020810190506104c9565b8683101561050b5784890151610507601f89168261041a565b8355505b6001600288020188555050505b505050505050565b7f4e487b71000000000000000000000000000000000000000000000000000000005f52601160045260245ffd5b5f61055782610326565b91507fffffffffffffffffffffffffffffffffffffffffffffffffffffffffffffffff820361058957610588610520565b5b600182019050919050565b614b9f806105a15f395ff3fe608060405234801561000f575f5ffd5b5060043610610140575f3560e01c80638782dc00116100b6578063b85b381b1161007a578063b85b381b146103cb578063c16fe907146103e9578063d67b2d0814610419578063e4b50cb814610435578063ef57e2d214610465578063f851a4401461049557610140565b80638782dc001461030f5780638b2d19c01461032b5780639377d71114610347578063a1e6a2551461037d578063b5ffbbcc1461039b57610140565b8063365b98b211610108578063365b98b2146101f85780634f64b2be1461022b578063519dc8d2146102615780636386c1c714610291578063661d49b0146102c157806375794a3c146102f157610140565b8063095bcdb61461014457806312effc321461016057806324d7806c1461017c578063274fae7c146101ac578063335d3410146101c8575b5f5ffd5b61015e600480360381019061015991906131c9565b6104b3565b005b61017a60048036038101906101759190613219565b610d0b565b005b61019660048036038101906101919190613244565b610ffe565b6040516101a39190613289565b60405180910390f35b6101c660048036038101906101c19190613219565b611055565b005b6101e260048036038101906101dd9190613244565b6115df565b6040516101ef9190613359565b60405180910390f35b610212600480360381019061020d9190613219565b611672565b604051610222949392919061347a565b60405180910390f35b61024560048036038101906102409190613219565b61174f565b60405161025897969594939291906134c4565b60405180910390f35b61027b60048036038101906102769190613244565b6118b8565b6040516102889190613359565b60405180910390f35b6102ab60048036038101906102a69190613244565b61194b565b6040516102b89190613605565b60405180910390f35b6102db60048036038101906102d69190613625565b611b22565b6040516102e89190613663565b60405180910390f35b6102f9611b42565b6040516103069190613663565b60405180910390f35b6103296004803603810190610324919061369f565b611b48565b005b61034560048036038101906103409190613809565b611d75565b005b610361600480360381019061035c9190613219565b612100565b6040516103749796959493929190613896565b60405180910390f35b610385612188565b6040516103929190613663565b60405180910390f35b6103b560048036038101906103b09190613244565b61218e565b6040516103c29190613663565b60405180910390f35b6103d36121a3565b6040516103e09190613663565b60405180910390f35b61040360048036038101906103fe9190613219565b6121a9565b604051610410919061399e565b60405180910390f35b610433600480360381019061042e91906139b7565b612334565b005b61044f600480360381019061044a9190613219565b612948565b60405161045c9190613af3565b60405180910390f35b61047f600480360381019061047a9190613625565b612b64565b60405161048c9190613663565b60405180910390f35b61049d612c0f565b6040516104aa9190613b13565b60405180910390f35b5f60085f3373ffffffffffffffffffffffffffffffffffffffff1673ffffffffffffffffffffffffffffffffffffffff1681526020019081526020015f205490505f8103610536576040517f08c379a000000000000000000000000000000000000000000000000000000000815260040161052d90613b76565b60405180910390fd5b6001600381111561054a57610549613407565b5b60075f8381526020019081526020015f206003015f9054906101000a900460ff16600381111561057d5761057c613407565b5b146105bd576040517f08c379a00000000000000000000000000000000000000000000000000000000081526004016105b490613bde565b60405180910390fd5b5f73ffffffffffffffffffffffffffffffffffffffff168473ffffffffffffffffffffffffffffffffffffffff160361062b576040517f08c379a000000000000000000000000000000000000000000000000000000000815260040161062290613c46565b60405180910390fd5b3373ffffffffffffffffffffffffffffffffffffffff168473ffffffffffffffffffffffffffffffffffffffff1603610699576040517f08c379a000000000000000000000000000000000000000000000000000000000815260040161069090613cae565b60405180910390fd5b5f60045f8581526020019081526020015f205f0154036106ee576040517f08c379a00000000000000000000000000000000000000000000000000000000081526004016106e590613d16565b60405180910390fd5b5f8211610730576040517f08c379a000000000000000000000000000000000000000000000000000000000815260040161072790613d7e565b60405180910390fd5b8160055f8581526020019081526020015f205f3373ffffffffffffffffffffffffffffffffffffffff1673ffffffffffffffffffffffffffffffffffffffff1681526020019081526020015f205410156107bf576040517f08c379a00000000000000000000000000000000000000000000000000000000081526004016107b690613de6565b60405180910390fd5b5f60085f3373ffffffffffffffffffffffffffffffffffffffff1673ffffffffffffffffffffffffffffffffffffffff1681526020019081526020015f205490505f60085f8773ffffffffffffffffffffffffffffffffffffffff1673ffffffffffffffffffffffffffffffffffffffff1681526020019081526020015f205490505f8103610883576040517f08c379a000000000000000000000000000000000000000000000000000000000815260040161087a90613e4e565b60405180910390fd5b6001600381111561089757610896613407565b5b60075f8381526020019081526020015f206003015f9054906101000a900460ff1660038111156108ca576108c9613407565b5b1461090a576040517f08c379a000000000000000000000000000000000000000000000000000000000815260040161090190613eb6565b60405180910390fd5b5f60075f8481526020019081526020015f20600201805461092a90613f01565b80601f016020809104026020016040519081016040528092919081815260200182805461095690613f01565b80156109a15780601f10610978576101008083540402835291602001916109a1565b820191905f5260205f20905b81548152906001019060200180831161098457829003601f168201915b505050505090505f60075f8481526020019081526020015f2060020180546109c890613f01565b80601f01602080910402602001604051908101604052809291908181526020018280546109f490613f01565b8015610a3f5780601f10610a1657610100808354040283529160200191610a3f565b820191905f5260205f20905b815481529060010190602001808311610a2257829003601f168201915b50505050509050610a508282612c33565b6040518060e0016040528060025481526020013373ffffffffffffffffffffffffffffffffffffffff1681526020018973ffffffffffffffffffffffffffffffffffffffff1681526020018881526020014281526020018781526020015f6002811115610ac057610abf613407565b5b81525060065f60025481526020019081526020015f205f820151815f01556020820151816001015f6101000a81548173ffffffffffffffffffffffffffffffffffffffff021916908373ffffffffffffffffffffffffffffffffffffffff1602179055506040820151816002015f6101000a81548173ffffffffffffffffffffffffffffffffffffffff021916908373ffffffffffffffffffffffffffffffffffffffff160217905550606082015181600301556080820151816004015560a0820151816005015560c0820151816006015f6101000a81548160ff02191690836002811115610bb257610bb1613407565b5b0217905550905050600a5f3373ffffffffffffffffffffffffffffffffffffffff1673ffffffffffffffffffffffffffffffffffffffff1681526020019081526020015f20600254908060018154018082558091505060019003905f5260205f20015f9091909190915055600a5f8973ffffffffffffffffffffffffffffffffffffffff1673ffffffffffffffffffffffffffffffffffffffff1681526020019081526020015f20600254908060018154018082558091505060019003905f5260205f20015f90919091909150558773ffffffffffffffffffffffffffffffffffffffff163373ffffffffffffffffffffffffffffffffffffffff166002547fc8262dc04f8f56abc884e1f58ca17a373610558a6cebc5e927b9e1c4668e5fdf8a8a604051610ce2929190613f31565b60405180910390a460025f815480929190610cfc90613f85565b91905055505050505050505050565b5f60085f3373ffffffffffffffffffffffffffffffffffffffff1673ffffffffffffffffffffffffffffffffffffffff1681526020019081526020015f205490505f8103610d8e576040517f08c379a0000000000000000000000000000000000000000000000000000000008152600401610d8590613b76565b60405180910390fd5b60016003811115610da257610da1613407565b5b60075f8381526020019081526020015f206003015f9054906101000a900460ff166003811115610dd557610dd4613407565b5b14610e15576040517f08c379a0000000000000000000000000000000000000000000000000000000008152600401610e0c90613bde565b60405180910390fd5b5f60065f8481526020019081526020015f205f015403610e6a576040517f08c379a0000000000000000000000000000000000000000000000000000000008152600401610e6190614016565b60405180910390fd5b3373ffffffffffffffffffffffffffffffffffffffff1660065f8481526020019081526020015f206002015f9054906101000a900473ffffffffffffffffffffffffffffffffffffffff1673ffffffffffffffffffffffffffffffffffffffff1614610f0b576040517f08c379a0000000000000000000000000000000000000000000000000000000008152600401610f029061407e565b60405180910390fd5b5f6002811115610f1e57610f1d613407565b5b60065f8481526020019081526020015f206006015f9054906101000a900460ff166002811115610f5157610f50613407565b5b14610f91576040517f08c379a0000000000000000000000000000000000000000000000000000000008152600401610f88906140e6565b60405180910390fd5b600260065f8481526020019081526020015f206006015f6101000a81548160ff02191690836002811115610fc857610fc7613407565b5b0217905550817f1f4f8a94e17d25044030f376d297769c8f9a1a2a0616e36b498a1e7370b5863f60405160405180910390a25050565b5f5f5f9054906101000a900473ffffffffffffffffffffffffffffffffffffffff1673ffffffffffffffffffffffffffffffffffffffff168273ffffffffffffffffffffffffffffffffffffffff16149050919050565b5f60085f3373ffffffffffffffffffffffffffffffffffffffff1673ffffffffffffffffffffffffffffffffffffffff1681526020019081526020015f205490505f81036110d8576040517f08c379a00000000000000000000000000000000000000000000000000000000081526004016110cf90613b76565b60405180910390fd5b600160038111156110ec576110eb613407565b5b60075f8381526020019081526020015f206003015f9054906101000a900460ff16600381111561111f5761111e613407565b5b1461115f576040517f08c379a000000000000000000000000000000000000000000000000000000000815260040161115690613bde565b60405180910390fd5b5f60065f8481526020019081526020015f205f0154036111b4576040517f08c379a00000000000000000000000000000000000000000000000000000000081526004016111ab90614016565b60405180910390fd5b3373ffffffffffffffffffffffffffffffffffffffff1660065f8481526020019081526020015f206002015f9054906101000a900473ffffffffffffffffffffffffffffffffffffffff1673ffffffffffffffffffffffffffffffffffffffff1614611255576040517f08c379a000000000000000000000000000000000000000000000000000000000815260040161124c9061414e565b60405180910390fd5b5f600281111561126857611267613407565b5b60065f8481526020019081526020015f206006015f9054906101000a900460ff16600281111561129b5761129a613407565b5b146112db576040517f08c379a00000000000000000000000000000000000000000000000000000000081526004016112d2906140e6565b60405180910390fd5b5f60065f8481526020019081526020015f209050806005015460055f836003015481526020019081526020015f205f836001015f9054906101000a900473ffffffffffffffffffffffffffffffffffffffff1673ffffffffffffffffffffffffffffffffffffffff1673ffffffffffffffffffffffffffffffffffffffff1681526020019081526020015f205410156113a9576040517f08c379a00000000000000000000000000000000000000000000000000000000081526004016113a0906141b6565b60405180910390fd5b806005015460055f836003015481526020019081526020015f205f836001015f9054906101000a900473ffffffffffffffffffffffffffffffffffffffff1673ffffffffffffffffffffffffffffffffffffffff1673ffffffffffffffffffffffffffffffffffffffff1681526020019081526020015f205f82825461142f91906141d4565b92505081905550806005015460055f836003015481526020019081526020015f205f836002015f9054906101000a900473ffffffffffffffffffffffffffffffffffffffff1673ffffffffffffffffffffffffffffffffffffffff1673ffffffffffffffffffffffffffffffffffffffff1681526020019081526020015f205f8282546114bc9190614207565b925050819055506114f4816002015f9054906101000a900473ffffffffffffffffffffffffffffffffffffffff168260030154612f3b565b6115815760095f826002015f9054906101000a900473ffffffffffffffffffffffffffffffffffffffff1673ffffffffffffffffffffffffffffffffffffffff1673ffffffffffffffffffffffffffffffffffffffff1681526020019081526020015f208160030154908060018154018082558091505060019003905f5260205f20015f90919091909150555b6001816006015f6101000a81548160ff021916908360028111156115a8576115a7613407565b5b0217905550827f91dd4234b45d77221e6eca52c141569a6d0f3b3ffe9b8a18fe8b9aafbc64b44b60405160405180910390a2505050565b6060600a5f8373ffffffffffffffffffffffffffffffffffffffff1673ffffffffffffffffffffffffffffffffffffffff1681526020019081526020015f2080548060200260200160405190810160405280929190818152602001828054801561166657602002820191905f5260205f20905b815481526020019060010190808311611652575b50505050509050919050565b6007602052805f5260405f205f91509050805f015490806001015f9054906101000a900473ffffffffffffffffffffffffffffffffffffffff16908060020180546116bc90613f01565b80601f01602080910402602001604051908101604052809291908181526020018280546116e890613f01565b80156117335780601f1061170a57610100808354040283529160200191611733565b820191905f5260205f20905b81548152906001019060200180831161171657829003601f168201915b505050505090806003015f9054906101000a900460ff16905084565b6004602052805f5260405f205f91509050805f015490806001015f9054906101000a900473ffffffffffffffffffffffffffffffffffffffff169080600201805461179990613f01565b80601f01602080910402602001604051908101604052809291908181526020018280546117c590613f01565b80156118105780601f106117e757610100808354040283529160200191611810565b820191905f5260205f20905b8154815290600101906020018083116117f357829003601f168201915b50505050509080600301549080600401805461182b90613f01565b80601f016020809104026020016040519081016040528092919081815260200182805461185790613f01565b80156118a25780601f10611879576101008083540402835291602001916118a2565b820191905f5260205f20905b81548152906001019060200180831161188557829003601f168201915b5050505050908060050154908060060154905087565b606060095f8373ffffffffffffffffffffffffffffffffffffffff1673ffffffffffffffffffffffffffffffffffffffff1681526020019081526020015f2080548060200260200160405190810160405280929190818152602001828054801561193f57602002820191905f5260205f20905b81548152602001906001019080831161192b575b50505050509050919050565b61195361301c565b5f60085f8473ffffffffffffffffffffffffffffffffffffffff1673ffffffffffffffffffffffffffffffffffffffff1681526020019081526020015f205490505f81036119d6576040517f08c379a00000000000000000000000000000000000000000000000000000000081526004016119cd90614284565b60405180910390fd5b60075f8281526020019081526020015f206040518060800160405290815f8201548152602001600182015f9054906101000a900473ffffffffffffffffffffffffffffffffffffffff1673ffffffffffffffffffffffffffffffffffffffff1673ffffffffffffffffffffffffffffffffffffffff168152602001600282018054611a6090613f01565b80601f0160208091040260200160405190810160405280929190818152602001828054611a8c90613f01565b8015611ad75780601f10611aae57610100808354040283529160200191611ad7565b820191905f5260205f20905b815481529060010190602001808311611aba57829003601f168201915b50505050508152602001600382015f9054906101000a900460ff166003811115611b0457611b03613407565b5b6003811115611b1657611b15613407565b5b81525050915050919050565b6005602052815f5260405f20602052805f5260405f205f91509150505481565b60015481565b5f5f9054906101000a900473ffffffffffffffffffffffffffffffffffffffff1673ffffffffffffffffffffffffffffffffffffffff163373ffffffffffffffffffffffffffffffffffffffff1614611bd6576040517f08c379a0000000000000000000000000000000000000000000000000000000008152600401611bcd90614312565b60405180910390fd5b5f60085f8473ffffffffffffffffffffffffffffffffffffffff1673ffffffffffffffffffffffffffffffffffffffff1681526020019081526020015f205490505f8103611c59576040517f08c379a0000000000000000000000000000000000000000000000000000000008152600401611c5090614284565b60405180910390fd5b5f5f9054906101000a900473ffffffffffffffffffffffffffffffffffffffff1673ffffffffffffffffffffffffffffffffffffffff168373ffffffffffffffffffffffffffffffffffffffff1603611ce7576040517f08c379a0000000000000000000000000000000000000000000000000000000008152600401611cde9061437a565b60405180910390fd5b8160075f8381526020019081526020015f206003015f6101000a81548160ff02191690836003811115611d1d57611d1c613407565b5b02179055508273ffffffffffffffffffffffffffffffffffffffff167fb3b609c7a5e504a312603e90d906d1667fd5caff0a840ad07bf5709a3ca1a04583604051611d689190614398565b60405180910390a2505050565b5f60085f3373ffffffffffffffffffffffffffffffffffffffff1673ffffffffffffffffffffffffffffffffffffffff1681526020019081526020015f205414611df4576040517f08c379a0000000000000000000000000000000000000000000000000000000008152600401611deb906143fb565b60405180910390fd5b6040518060400160405280600881526020017f50726f64756365720000000000000000000000000000000000000000000000008152508051906020012081805190602001201480611e8757506040518060400160405280600781526020017f466163746f727900000000000000000000000000000000000000000000000000815250805190602001208180519060200120145b80611ed457506040518060400160405280600881526020017f52657461696c6572000000000000000000000000000000000000000000000000815250805190602001208180519060200120145b80611f2157506040518060400160405280600881526020017f436f6e73756d6572000000000000000000000000000000000000000000000000815250805190602001208180519060200120145b611f60576040517f08c379a0000000000000000000000000000000000000000000000000000000008152600401611f5790614463565b60405180910390fd5b604051806080016040528060035481526020013373ffffffffffffffffffffffffffffffffffffffff1681526020018281526020015f6003811115611fa857611fa7613407565b5b81525060075f60035481526020019081526020015f205f820151815f01556020820151816001015f6101000a81548173ffffffffffffffffffffffffffffffffffffffff021916908373ffffffffffffffffffffffffffffffffffffffff16021790555060408201518160020190816120219190614621565b506060820151816003015f6101000a81548160ff0219169083600381111561204c5761204b613407565b5b021790555090505060035460085f3373ffffffffffffffffffffffffffffffffffffffff1673ffffffffffffffffffffffffffffffffffffffff1681526020019081526020015f208190555060035f8154809291906120aa90613f85565b91905055503373ffffffffffffffffffffffffffffffffffffffff167f713064be2b63db5e6f672d3804bef390205dcf7b58bf7a978b9c31a4d05f39f0826040516120f591906146f0565b60405180910390a250565b6006602052805f5260405f205f91509050805f015490806001015f9054906101000a900473ffffffffffffffffffffffffffffffffffffffff1690806002015f9054906101000a900473ffffffffffffffffffffffffffffffffffffffff1690806003015490806004015490806005015490806006015f9054906101000a900460ff16905087565b60035481565b6008602052805f5260405f205f915090505481565b60025481565b6121b1613069565b5f60065f8481526020019081526020015f205f015403612206576040517f08c379a00000000000000000000000000000000000000000000000000000000081526004016121fd90614016565b60405180910390fd5b60065f8381526020019081526020015f206040518060e00160405290815f8201548152602001600182015f9054906101000a900473ffffffffffffffffffffffffffffffffffffffff1673ffffffffffffffffffffffffffffffffffffffff1673ffffffffffffffffffffffffffffffffffffffff168152602001600282015f9054906101000a900473ffffffffffffffffffffffffffffffffffffffff1673ffffffffffffffffffffffffffffffffffffffff1673ffffffffffffffffffffffffffffffffffffffff168152602001600382015481526020016004820154815260200160058201548152602001600682015f9054906101000a900460ff16600281111561231757612316613407565b5b600281111561232957612328613407565b5b815250509050919050565b5f60085f3373ffffffffffffffffffffffffffffffffffffffff1673ffffffffffffffffffffffffffffffffffffffff1681526020019081526020015f205490505f81036123b7576040517f08c379a00000000000000000000000000000000000000000000000000000000081526004016123ae90613b76565b60405180910390fd5b600160038111156123cb576123ca613407565b5b60075f8381526020019081526020015f206003015f9054906101000a900460ff1660038111156123fe576123fd613407565b5b1461243e576040517f08c379a000000000000000000000000000000000000000000000000000000000815260040161243590613bde565b60405180910390fd5b5f8411612480576040517f08c379a000000000000000000000000000000000000000000000000000000000815260040161247790614780565b60405180910390fd5b5f60085f3373ffffffffffffffffffffffffffffffffffffffff1673ffffffffffffffffffffffffffffffffffffffff1681526020019081526020015f205490505f60075f8381526020019081526020015f2060020180546124e190613f01565b80601f016020809104026020016040519081016040528092919081815260200182805461250d90613f01565b80156125585780601f1061252f57610100808354040283529160200191612558565b820191905f5260205f20905b81548152906001019060200180831161253b57829003601f168201915b505050505090506040518060400160405280600881526020017f50726f6475636572000000000000000000000000000000000000000000000000815250805190602001208180519060200120036125f0575f84146125eb576040517f08c379a00000000000000000000000000000000000000000000000000000000081526004016125e29061480e565b60405180910390fd5b612726565b6040518060400160405280600781526020017f466163746f727900000000000000000000000000000000000000000000000000815250805190602001208180519060200120148061268357506040518060400160405280600881526020017f52657461696c6572000000000000000000000000000000000000000000000000815250805190602001208180519060200120145b156126ea575f84146126e5575f60045f8681526020019081526020015f205f0154036126e4576040517f08c379a00000000000000000000000000000000000000000000000000000000081526004016126db90614876565b60405180910390fd5b5b612725565b6040517f08c379a000000000000000000000000000000000000000000000000000000000815260040161271c906148de565b60405180910390fd5b5b6040518060e0016040528060015481526020013373ffffffffffffffffffffffffffffffffffffffff1681526020018881526020018781526020018681526020018581526020014281525060045f60015481526020019081526020015f205f820151815f01556020820151816001015f6101000a81548173ffffffffffffffffffffffffffffffffffffffff021916908373ffffffffffffffffffffffffffffffffffffffff16021790555060408201518160020190816127e79190614621565b506060820151816003015560808201518160040190816128079190614621565b5060a0820151816005015560c082015181600601559050508560055f60015481526020019081526020015f205f3373ffffffffffffffffffffffffffffffffffffffff1673ffffffffffffffffffffffffffffffffffffffff1681526020019081526020015f208190555060095f3373ffffffffffffffffffffffffffffffffffffffff1673ffffffffffffffffffffffffffffffffffffffff1681526020019081526020015f20600154908060018154018082558091505060019003905f5260205f20015f90919091909150553373ffffffffffffffffffffffffffffffffffffffff166001547f463ec2a62c46678a81e23cde640446ca4b512f102bb3309cf5a3e2a4ae83146489896040516129209291906148fc565b60405180910390a360015f81548092919061293a90613f85565b919050555050505050505050565b6129506130dd565b5f60045f8481526020019081526020015f205f0154036129a5576040517f08c379a000000000000000000000000000000000000000000000000000000000815260040161299c90613d16565b60405180910390fd5b60045f8381526020019081526020015f206040518060e00160405290815f8201548152602001600182015f9054906101000a900473ffffffffffffffffffffffffffffffffffffffff1673ffffffffffffffffffffffffffffffffffffffff1673ffffffffffffffffffffffffffffffffffffffff168152602001600282018054612a2f90613f01565b80601f0160208091040260200160405190810160405280929190818152602001828054612a5b90613f01565b8015612aa65780601f10612a7d57610100808354040283529160200191612aa6565b820191905f5260205f20905b815481529060010190602001808311612a8957829003601f168201915b5050505050815260200160038201548152602001600482018054612ac990613f01565b80601f0160208091040260200160405190810160405280929190818152602001828054612af590613f01565b8015612b405780601f10612b1757610100808354040283529160200191612b40565b820191905f5260205f20905b815481529060010190602001808311612b2357829003601f168201915b50505050508152602001600582015481526020016006820154815250509050919050565b5f5f60045f8581526020019081526020015f205f015403612bba576040517f08c379a0000000000000000000000000000000000000000000000000000000008152600401612bb190613d16565b60405180910390fd5b60055f8481526020019081526020015f205f8373ffffffffffffffffffffffffffffffffffffffff1673ffffffffffffffffffffffffffffffffffffffff1681526020019081526020015f2054905092915050565b5f5f9054906101000a900473ffffffffffffffffffffffffffffffffffffffff1681565b6040518060400160405280600881526020017f50726f647563657200000000000000000000000000000000000000000000000081525080519060200120828051906020012003612d07576040518060400160405280600781526020017f466163746f72790000000000000000000000000000000000000000000000000081525080519060200120818051906020012014612d02576040517f08c379a0000000000000000000000000000000000000000000000000000000008152600401612cf99061499a565b60405180910390fd5b612f37565b6040518060400160405280600781526020017f466163746f72790000000000000000000000000000000000000000000000000081525080519060200120828051906020012003612ddb576040518060400160405280600881526020017f52657461696c657200000000000000000000000000000000000000000000000081525080519060200120818051906020012014612dd6576040517f08c379a0000000000000000000000000000000000000000000000000000000008152600401612dcd90614a28565b60405180910390fd5b612f36565b6040518060400160405280600881526020017f52657461696c657200000000000000000000000000000000000000000000000081525080519060200120828051906020012003612eaf576040518060400160405280600881526020017f436f6e73756d657200000000000000000000000000000000000000000000000081525080519060200120818051906020012014612eaa576040517f08c379a0000000000000000000000000000000000000000000000000000000008152600401612ea190614ab6565b60405180910390fd5b612f35565b6040518060400160405280600881526020017f436f6e73756d657200000000000000000000000000000000000000000000000081525080519060200120828051906020012003612f34576040517f08c379a0000000000000000000000000000000000000000000000000000000008152600401612f2b90614b1e565b60405180910390fd5b5b5b5b5050565b5f5f60095f8573ffffffffffffffffffffffffffffffffffffffff1673ffffffffffffffffffffffffffffffffffffffff1681526020019081526020015f20805480602002602001604051908101604052809291908181526020018280548015612fc257602002820191905f5260205f20905b815481526020019060010190808311612fae575b505050505090505f5f90505b81518110156130105783828281518110612feb57612fea614b3c565b5b60200260200101510361300357600192505050613016565b8080600101915050612fce565b505f9150505b92915050565b60405180608001604052805f81526020015f73ffffffffffffffffffffffffffffffffffffffff168152602001606081526020015f600381111561306357613062613407565b5b81525090565b6040518060e001604052805f81526020015f73ffffffffffffffffffffffffffffffffffffffff1681526020015f73ffffffffffffffffffffffffffffffffffffffff1681526020015f81526020015f81526020015f81526020015f60028111156130d7576130d6613407565b5b81525090565b6040518060e001604052805f81526020015f73ffffffffffffffffffffffffffffffffffffffff168152602001606081526020015f8152602001606081526020015f81526020015f81525090565b5f604051905090565b5f5ffd5b5f5ffd5b5f73ffffffffffffffffffffffffffffffffffffffff82169050919050565b5f6131658261313c565b9050919050565b6131758161315b565b811461317f575f5ffd5b50565b5f813590506131908161316c565b92915050565b5f819050919050565b6131a881613196565b81146131b2575f5ffd5b50565b5f813590506131c38161319f565b92915050565b5f5f5f606084860312156131e0576131df613134565b5b5f6131ed86828701613182565b93505060206131fe868287016131b5565b925050604061320f868287016131b5565b9150509250925092565b5f6020828403121561322e5761322d613134565b5b5f61323b848285016131b5565b91505092915050565b5f6020828403121561325957613258613134565b5b5f61326684828501613182565b91505092915050565b5f8115159050919050565b6132838161326f565b82525050565b5f60208201905061329c5f83018461327a565b92915050565b5f81519050919050565b5f82825260208201905092915050565b5f819050602082019050919050565b6132d481613196565b82525050565b5f6132e583836132cb565b60208301905092915050565b5f602082019050919050565b5f613307826132a2565b61331181856132ac565b935061331c836132bc565b805f5b8381101561334c57815161333388826132da565b975061333e836132f1565b92505060018101905061331f565b5085935050505092915050565b5f6020820190508181035f83015261337181846132fd565b905092915050565b61338281613196565b82525050565b6133918161315b565b82525050565b5f81519050919050565b5f82825260208201905092915050565b8281835e5f83830152505050565b5f601f19601f8301169050919050565b5f6133d982613397565b6133e381856133a1565b93506133f38185602086016133b1565b6133fc816133bf565b840191505092915050565b7f4e487b71000000000000000000000000000000000000000000000000000000005f52602160045260245ffd5b6004811061344557613444613407565b5b50565b5f81905061345582613434565b919050565b5f61346482613448565b9050919050565b6134748161345a565b82525050565b5f60808201905061348d5f830187613379565b61349a6020830186613388565b81810360408301526134ac81856133cf565b90506134bb606083018461346b565b95945050505050565b5f60e0820190506134d75f83018a613379565b6134e46020830189613388565b81810360408301526134f681886133cf565b90506135056060830187613379565b818103608083015261351781866133cf565b905061352660a0830185613379565b61353360c0830184613379565b98975050505050505050565b6135488161315b565b82525050565b5f82825260208201905092915050565b5f61356882613397565b613572818561354e565b93506135828185602086016133b1565b61358b816133bf565b840191505092915050565b61359f8161345a565b82525050565b5f608083015f8301516135ba5f8601826132cb565b5060208301516135cd602086018261353f565b50604083015184820360408601526135e5828261355e565b91505060608301516135fa6060860182613596565b508091505092915050565b5f6020820190508181035f83015261361d81846135a5565b905092915050565b5f5f6040838503121561363b5761363a613134565b5b5f613648858286016131b5565b925050602061365985828601613182565b9150509250929050565b5f6020820190506136765f830184613379565b92915050565b60048110613688575f5ffd5b50565b5f813590506136998161367c565b92915050565b5f5f604083850312156136b5576136b4613134565b5b5f6136c285828601613182565b92505060206136d38582860161368b565b9150509250929050565b5f5ffd5b5f5ffd5b7f4e487b71000000000000000000000000000000000000000000000000000000005f52604160045260245ffd5b61371b826133bf565b810181811067ffffffffffffffff8211171561373a576137396136e5565b5b80604052505050565b5f61374c61312b565b90506137588282613712565b919050565b5f67ffffffffffffffff821115613777576137766136e5565b5b613780826133bf565b9050602081019050919050565b828183375f83830152505050565b5f6137ad6137a88461375d565b613743565b9050828152602081018484840111156137c9576137c86136e1565b5b6137d484828561378d565b509392505050565b5f82601f8301126137f0576137ef6136dd565b5b813561380084826020860161379b565b91505092915050565b5f6020828403121561381e5761381d613134565b5b5f82013567ffffffffffffffff81111561383b5761383a613138565b5b613847848285016137dc565b91505092915050565b6003811061386157613860613407565b5b50565b5f81905061387182613850565b919050565b5f61388082613864565b9050919050565b61389081613876565b82525050565b5f60e0820190506138a95f83018a613379565b6138b66020830189613388565b6138c36040830188613388565b6138d06060830187613379565b6138dd6080830186613379565b6138ea60a0830185613379565b6138f760c0830184613887565b98975050505050505050565b61390c81613876565b82525050565b60e082015f8201516139265f8501826132cb565b506020820151613939602085018261353f565b50604082015161394c604085018261353f565b50606082015161395f60608501826132cb565b50608082015161397260808501826132cb565b5060a082015161398560a08501826132cb565b5060c082015161399860c0850182613903565b50505050565b5f60e0820190506139b15f830184613912565b92915050565b5f5f5f5f608085870312156139cf576139ce613134565b5b5f85013567ffffffffffffffff8111156139ec576139eb613138565b5b6139f8878288016137dc565b9450506020613a09878288016131b5565b935050604085013567ffffffffffffffff811115613a2a57613a29613138565b5b613a36878288016137dc565b9250506060613a47878288016131b5565b91505092959194509250565b5f60e083015f830151613a685f8601826132cb565b506020830151613a7b602086018261353f565b5060408301518482036040860152613a93828261355e565b9150506060830151613aa860608601826132cb565b5060808301518482036080860152613ac0828261355e565b91505060a0830151613ad560a08601826132cb565b5060c0830151613ae860c08601826132cb565b508091505092915050565b5f6020820190508181035f830152613b0b8184613a53565b905092915050565b5f602082019050613b265f830184613388565b92915050565b7f55736572206e6f742072656769737465726564000000000000000000000000005f82015250565b5f613b606013836133a1565b9150613b6b82613b2c565b602082019050919050565b5f6020820190508181035f830152613b8d81613b54565b9050919050565b7f55736572206e6f7420617070726f7665640000000000000000000000000000005f82015250565b5f613bc86011836133a1565b9150613bd382613b94565b602082019050919050565b5f6020820190508181035f830152613bf581613bbc565b9050919050565b7f496e76616c696420726563697069656e742061646472657373000000000000005f82015250565b5f613c306019836133a1565b9150613c3b82613bfc565b602082019050919050565b5f6020820190508181035f830152613c5d81613c24565b9050919050565b7f43616e6e6f74207472616e7366657220746f20796f757273656c6600000000005f82015250565b5f613c98601b836133a1565b9150613ca382613c64565b602082019050919050565b5f6020820190508181035f830152613cc581613c8c565b9050919050565b7f546f6b656e20646f6573206e6f742065786973740000000000000000000000005f82015250565b5f613d006014836133a1565b9150613d0b82613ccc565b602082019050919050565b5f6020820190508181035f830152613d2d81613cf4565b9050919050565b7f416d6f756e74206d7573742062652067726561746572207468616e20300000005f82015250565b5f613d68601d836133a1565b9150613d7382613d34565b602082019050919050565b5f6020820190508181035f830152613d9581613d5c565b9050919050565b7f496e73756666696369656e742062616c616e63650000000000000000000000005f82015250565b5f613dd06014836133a1565b9150613ddb82613d9c565b602082019050919050565b5f6020820190508181035f830152613dfd81613dc4565b9050919050565b7f526563697069656e74206e6f74207265676973746572656400000000000000005f82015250565b5f613e386018836133a1565b9150613e4382613e04565b602082019050919050565b5f6020820190508181035f830152613e6581613e2c565b9050919050565b7f526563697069656e74206e6f7420617070726f766564000000000000000000005f82015250565b5f613ea06016836133a1565b9150613eab82613e6c565b602082019050919050565b5f6020820190508181035f830152613ecd81613e94565b9050919050565b7f4e487b71000000000000000000000000000000000000000000000000000000005f52602260045260245ffd5b5f6002820490506001821680613f1857607f821691505b602082108103613f2b57613f2a613ed4565b5b50919050565b5f604082019050613f445f830185613379565b613f516020830184613379565b9392505050565b7f4e487b71000000000000000000000000000000000000000000000000000000005f52601160045260245ffd5b5f613f8f82613196565b91507fffffffffffffffffffffffffffffffffffffffffffffffffffffffffffffffff8203613fc157613fc0613f58565b5b600182019050919050565b7f5472616e7366657220646f6573206e6f742065786973740000000000000000005f82015250565b5f6140006017836133a1565b915061400b82613fcc565b602082019050919050565b5f6020820190508181035f83015261402d81613ff4565b9050919050565b7f4f6e6c7920726563697069656e742063616e2072656a656374000000000000005f82015250565b5f6140686019836133a1565b915061407382614034565b602082019050919050565b5f6020820190508181035f8301526140958161405c565b9050919050565b7f5472616e73666572206e6f742070656e64696e670000000000000000000000005f82015250565b5f6140d06014836133a1565b91506140db8261409c565b602082019050919050565b5f6020820190508181035f8301526140fd816140c4565b9050919050565b7f4f6e6c7920726563697069656e742063616e20616363657074000000000000005f82015250565b5f6141386019836133a1565b915061414382614104565b602082019050919050565b5f6020820190508181035f8301526141658161412c565b9050919050565b7f53656e6465722068617320696e73756666696369656e742062616c616e6365005f82015250565b5f6141a0601f836133a1565b91506141ab8261416c565b602082019050919050565b5f6020820190508181035f8301526141cd81614194565b9050919050565b5f6141de82613196565b91506141e983613196565b925082820390508181111561420157614200613f58565b5b92915050565b5f61421182613196565b915061421c83613196565b925082820190508082111561423457614233613f58565b5b92915050565b7f55736572206e6f7420666f756e640000000000000000000000000000000000005f82015250565b5f61426e600e836133a1565b91506142798261423a565b602082019050919050565b5f6020820190508181035f83015261429b81614262565b9050919050565b7f4f6e6c792061646d696e2063616e20706572666f726d207468697320616374695f8201527f6f6e000000000000000000000000000000000000000000000000000000000000602082015250565b5f6142fc6022836133a1565b9150614307826142a2565b604082019050919050565b5f6020820190508181035f830152614329816142f0565b9050919050565b7f43616e6e6f74206368616e67652061646d696e207374617475730000000000005f82015250565b5f614364601a836133a1565b915061436f82614330565b602082019050919050565b5f6020820190508181035f83015261439181614358565b9050919050565b5f6020820190506143ab5f83018461346b565b92915050565b7f5573657220616c726561647920726567697374657265640000000000000000005f82015250565b5f6143e56017836133a1565b91506143f0826143b1565b602082019050919050565b5f6020820190508181035f830152614412816143d9565b9050919050565b7f496e76616c696420726f6c6500000000000000000000000000000000000000005f82015250565b5f61444d600c836133a1565b915061445882614419565b602082019050919050565b5f6020820190508181035f83015261447a81614441565b9050919050565b5f819050815f5260205f209050919050565b5f6020601f8301049050919050565b5f82821b905092915050565b5f600883026144dd7fffffffffffffffffffffffffffffffffffffffffffffffffffffffffffffffff826144a2565b6144e786836144a2565b95508019841693508086168417925050509392505050565b5f819050919050565b5f61452261451d61451884613196565b6144ff565b613196565b9050919050565b5f819050919050565b61453b83614508565b61454f61454782614529565b8484546144ae565b825550505050565b5f5f905090565b614566614557565b614571818484614532565b505050565b5b81811015614594576145895f8261455e565b600181019050614577565b5050565b601f8211156145d9576145aa81614481565b6145b384614493565b810160208510156145c2578190505b6145d66145ce85614493565b830182614576565b50505b505050565b5f82821c905092915050565b5f6145f95f19846008026145de565b1980831691505092915050565b5f61461183836145ea565b9150826002028217905092915050565b61462a82613397565b67ffffffffffffffff811115614643576146426136e5565b5b61464d8254613f01565b614658828285614598565b5f60209050601f831160018114614689575f8415614677578287015190505b6146818582614606565b8655506146e8565b601f19841661469786614481565b5f5b828110156146be57848901518255600182019150602085019450602081019050614699565b868310156146db57848901516146d7601f8916826145ea565b8355505b6001600288020188555050505b505050505050565b5f6020820190508181035f83015261470881846133cf565b905092915050565b7f546f74616c20737570706c79206d7573742062652067726561746572207468615f8201527f6e20300000000000000000000000000000000000000000000000000000000000602082015250565b5f61476a6023836133a1565b915061477582614710565b604082019050919050565b5f6020820190508181035f8301526147978161475e565b9050919050565b7f50726f64756365722063616e206f6e6c792063726561746520726177206d61745f8201527f657269616c20746f6b656e730000000000000000000000000000000000000000602082015250565b5f6147f8602c836133a1565b91506148038261479e565b604082019050919050565b5f6020820190508181035f830152614825816147ec565b9050919050565b7f506172656e7420746f6b656e20646f6573206e6f7420657869737400000000005f82015250565b5f614860601b836133a1565b915061486b8261482c565b602082019050919050565b5f6020820190508181035f83015261488d81614854565b9050919050565b7f436f6e73756d65722063616e6e6f742063726561746520746f6b656e730000005f82015250565b5f6148c8601d836133a1565b91506148d382614894565b602082019050919050565b5f6020820190508181035f8301526148f5816148bc565b9050919050565b5f6040820190508181035f83015261491481856133cf565b90506149236020830184613379565b9392505050565b7f50726f64756365722063616e206f6e6c79207472616e7366657220746f2046615f8201527f63746f7279000000000000000000000000000000000000000000000000000000602082015250565b5f6149846025836133a1565b915061498f8261492a565b604082019050919050565b5f6020820190508181035f8301526149b181614978565b9050919050565b7f466163746f72792063616e206f6e6c79207472616e7366657220746f205265745f8201527f61696c6572000000000000000000000000000000000000000000000000000000602082015250565b5f614a126025836133a1565b9150614a1d826149b8565b604082019050919050565b5f6020820190508181035f830152614a3f81614a06565b9050919050565b7f52657461696c65722063616e206f6e6c79207472616e7366657220746f20436f5f8201527f6e73756d65720000000000000000000000000000000000000000000000000000602082015250565b5f614aa06026836133a1565b9150614aab82614a46565b604082019050919050565b5f6020820190508181035f830152614acd81614a94565b9050919050565b7f436f6e73756d65722063616e6e6f74207472616e7366657220746f6b656e73005f82015250565b5f614b08601f836133a1565b9150614b1382614ad4565b602082019050919050565b5f6020820190508181035f830152614b3581614afc565b9050919050565b7f4e487b71000000000000000000000000000000000000000000000000000000005f52603260045260245ffdfea2646970667358221220f9507b280cbc25db7dd6fb3a74cbfef4ffc281b669d0242f637d66fd298122d464736f6c634300081e0033","linkReferences":{}},"methodIdentifiers":{"acceptTransfer(uint256)":"274fae7c","addressToUserId(address)":"b5ffbbcc","admin()":"f851a440","changeStatusUser(address,uint8)":"8782dc00","createToken(string,uint256,string,uint256)":"d67b2d08","getToken(uint256)":"e4b50cb8","getTokenBalance(uint256,address)":"ef57e2d2","getTransfer(uint256)":"c16fe907","getUserInfo(address)":"6386c1c7","getUserTokens(address)":"519dc8d2","getUserTransfers(address)":"335d3410","isAdmin(address)":"24d7806c","nextTokenId()":"75794a3c","nextTransferId()":"b85b381b","nextUserId()":"a1e6a255","rejectTransfer(uint256)":"12effc32","requestUserRole(string)":"8b2d19c0","tokenBalances(uint256,address)":"661d49b0","tokens(uint256)":"4f64b2be","transfer(address,uint256,uint256)":"095bcdb6","transfers(uint256)":"9377d711","users(uint256)":"365b98b2"},"id":23}